{
  "_format": "hh-sol-artifact-1",
  "contractName": "Insignia",
  "sourceName": "contracts/Insignia.sol",
  "abi": [
    {
      "inputs": [],
      "stateMutability": "nonpayable",
      "type": "constructor"
    },
    {
      "anonymous": false,
      "inputs": [
        {
          "indexed": true,
          "internalType": "address",
          "name": "owner",
          "type": "address"
        },
        {
          "indexed": true,
          "internalType": "address",
          "name": "approved",
          "type": "address"
        },
        {
          "indexed": true,
          "internalType": "uint256",
          "name": "tokenId",
          "type": "uint256"
        }
      ],
      "name": "Approval",
      "type": "event"
    },
    {
      "anonymous": false,
      "inputs": [
        {
          "indexed": true,
          "internalType": "address",
          "name": "owner",
          "type": "address"
        },
        {
          "indexed": true,
          "internalType": "address",
          "name": "operator",
          "type": "address"
        },
        {
          "indexed": false,
          "internalType": "bool",
          "name": "approved",
          "type": "bool"
        }
      ],
      "name": "ApprovalForAll",
      "type": "event"
    },
    {
      "anonymous": false,
      "inputs": [
        {
          "indexed": true,
          "internalType": "address",
          "name": "owner",
          "type": "address"
        },
        {
          "indexed": false,
          "internalType": "uint256",
          "name": "id",
          "type": "uint256"
        },
        {
          "indexed": false,
          "internalType": "uint256",
          "name": "dna",
          "type": "uint256"
        }
      ],
      "name": "NewGladiator",
      "type": "event"
    },
    {
      "anonymous": false,
      "inputs": [
        {
          "indexed": true,
          "internalType": "address",
          "name": "previousOwner",
          "type": "address"
        },
        {
          "indexed": true,
          "internalType": "address",
          "name": "newOwner",
          "type": "address"
        }
      ],
      "name": "OwnershipTransferred",
      "type": "event"
    },
    {
      "anonymous": false,
      "inputs": [
        {
          "indexed": false,
          "internalType": "address",
          "name": "account",
          "type": "address"
        }
      ],
      "name": "Paused",
      "type": "event"
    },
    {
      "anonymous": false,
      "inputs": [
        {
          "indexed": true,
          "internalType": "address",
          "name": "from",
          "type": "address"
        },
        {
          "indexed": true,
          "internalType": "address",
          "name": "to",
          "type": "address"
        },
        {
          "indexed": true,
          "internalType": "uint256",
          "name": "tokenId",
          "type": "uint256"
        }
      ],
      "name": "Transfer",
      "type": "event"
    },
    {
      "anonymous": false,
      "inputs": [
        {
          "indexed": false,
          "internalType": "address",
          "name": "account",
          "type": "address"
        }
      ],
      "name": "Unpaused",
      "type": "event"
    },
    {
      "inputs": [
        {
          "internalType": "address",
          "name": "to",
          "type": "address"
        },
        {
          "internalType": "uint256",
          "name": "tokenId",
          "type": "uint256"
        }
      ],
      "name": "approve",
      "outputs": [],
      "stateMutability": "nonpayable",
      "type": "function"
    },
    {
      "inputs": [
        {
          "internalType": "address",
          "name": "owner",
          "type": "address"
        }
      ],
      "name": "balanceOf",
      "outputs": [
        {
          "internalType": "uint256",
          "name": "",
          "type": "uint256"
        }
      ],
      "stateMutability": "view",
      "type": "function"
    },
    {
      "inputs": [
        {
          "internalType": "string",
          "name": "_name",
          "type": "string"
        },
        {
          "internalType": "string",
          "name": "tokenURI",
          "type": "string"
        }
      ],
      "name": "createRandomGladiator",
      "outputs": [],
      "stateMutability": "payable",
      "type": "function"
    },
    {
      "inputs": [
        {
          "internalType": "uint256",
          "name": "tokenId",
          "type": "uint256"
        }
      ],
      "name": "getApproved",
      "outputs": [
        {
          "internalType": "address",
          "name": "",
          "type": "address"
        }
      ],
      "stateMutability": "view",
      "type": "function"
    },
    {
      "inputs": [],
      "name": "getGladiators",
      "outputs": [
        {
          "components": [
            {
              "internalType": "string",
              "name": "name",
              "type": "string"
            },
            {
              "internalType": "uint256",
              "name": "id",
              "type": "uint256"
            },
            {
              "internalType": "uint256",
              "name": "dna",
              "type": "uint256"
            },
            {
              "internalType": "uint8",
              "name": "level",
              "type": "uint8"
            },
            {
              "internalType": "uint8",
              "name": "rarity",
              "type": "uint8"
            }
          ],
          "internalType": "struct Insignia.Gladiator[]",
          "name": "",
          "type": "tuple[]"
        }
      ],
      "stateMutability": "view",
      "type": "function"
    },
    {
      "inputs": [],
      "name": "getMintingPrice",
      "outputs": [
        {
          "internalType": "uint256",
          "name": "",
          "type": "uint256"
        }
      ],
      "stateMutability": "view",
      "type": "function"
    },
    {
      "inputs": [
        {
          "internalType": "address",
          "name": "_owner",
          "type": "address"
        }
      ],
      "name": "getOwnerGladiators",
      "outputs": [
        {
          "components": [
            {
              "internalType": "string",
              "name": "name",
              "type": "string"
            },
            {
              "internalType": "uint256",
              "name": "id",
              "type": "uint256"
            },
            {
              "internalType": "uint256",
              "name": "dna",
              "type": "uint256"
            },
            {
              "internalType": "uint8",
              "name": "level",
              "type": "uint8"
            },
            {
              "internalType": "uint8",
              "name": "rarity",
              "type": "uint8"
            }
          ],
          "internalType": "struct Insignia.Gladiator[]",
          "name": "",
          "type": "tuple[]"
        }
      ],
      "stateMutability": "view",
      "type": "function"
    },
    {
      "inputs": [
        {
          "internalType": "uint256",
          "name": "",
          "type": "uint256"
        }
      ],
      "name": "gladiators",
      "outputs": [
        {
          "internalType": "string",
          "name": "name",
          "type": "string"
        },
        {
          "internalType": "uint256",
          "name": "id",
          "type": "uint256"
        },
        {
          "internalType": "uint256",
          "name": "dna",
          "type": "uint256"
        },
        {
          "internalType": "uint8",
          "name": "level",
          "type": "uint8"
        },
        {
          "internalType": "uint8",
          "name": "rarity",
          "type": "uint8"
        }
      ],
      "stateMutability": "view",
      "type": "function"
    },
    {
      "inputs": [
        {
          "internalType": "address",
          "name": "owner",
          "type": "address"
        },
        {
          "internalType": "address",
          "name": "operator",
          "type": "address"
        }
      ],
      "name": "isApprovedForAll",
      "outputs": [
        {
          "internalType": "bool",
          "name": "",
          "type": "bool"
        }
      ],
      "stateMutability": "view",
      "type": "function"
    },
    {
      "inputs": [
        {
          "internalType": "uint256",
          "name": "_gladiatorId",
          "type": "uint256"
        }
      ],
      "name": "levelUp",
      "outputs": [],
      "stateMutability": "nonpayable",
      "type": "function"
    },
    {
      "inputs": [],
      "name": "name",
      "outputs": [
        {
          "internalType": "string",
          "name": "",
          "type": "string"
        }
      ],
      "stateMutability": "view",
      "type": "function"
    },
    {
      "inputs": [],
      "name": "owner",
      "outputs": [
        {
          "internalType": "address",
          "name": "",
          "type": "address"
        }
      ],
      "stateMutability": "view",
      "type": "function"
    },
    {
      "inputs": [
        {
          "internalType": "uint256",
          "name": "tokenId",
          "type": "uint256"
        }
      ],
      "name": "ownerOf",
      "outputs": [
        {
          "internalType": "address",
          "name": "",
          "type": "address"
        }
      ],
      "stateMutability": "view",
      "type": "function"
    },
    {
      "inputs": [],
      "name": "pause",
      "outputs": [],
      "stateMutability": "nonpayable",
      "type": "function"
    },
    {
      "inputs": [],
      "name": "paused",
      "outputs": [
        {
          "internalType": "bool",
          "name": "",
          "type": "bool"
        }
      ],
      "stateMutability": "view",
      "type": "function"
    },
    {
      "inputs": [],
      "name": "renounceOwnership",
      "outputs": [],
      "stateMutability": "nonpayable",
      "type": "function"
    },
    {
      "inputs": [
        {
          "internalType": "address",
          "name": "from",
          "type": "address"
        },
        {
          "internalType": "address",
          "name": "to",
          "type": "address"
        },
        {
          "internalType": "uint256",
          "name": "tokenId",
          "type": "uint256"
        }
      ],
      "name": "safeTransferFrom",
      "outputs": [],
      "stateMutability": "nonpayable",
      "type": "function"
    },
    {
      "inputs": [
        {
          "internalType": "address",
          "name": "from",
          "type": "address"
        },
        {
          "internalType": "address",
          "name": "to",
          "type": "address"
        },
        {
          "internalType": "uint256",
          "name": "tokenId",
          "type": "uint256"
        },
        {
          "internalType": "bytes",
          "name": "_data",
          "type": "bytes"
        }
      ],
      "name": "safeTransferFrom",
      "outputs": [],
      "stateMutability": "nonpayable",
      "type": "function"
    },
    {
      "inputs": [
        {
          "internalType": "address",
          "name": "operator",
          "type": "address"
        },
        {
          "internalType": "bool",
          "name": "approved",
          "type": "bool"
        }
      ],
      "name": "setApprovalForAll",
      "outputs": [],
      "stateMutability": "nonpayable",
      "type": "function"
    },
    {
      "inputs": [
        {
          "internalType": "bytes4",
          "name": "interfaceId",
          "type": "bytes4"
        }
      ],
      "name": "supportsInterface",
      "outputs": [
        {
          "internalType": "bool",
          "name": "",
          "type": "bool"
        }
      ],
      "stateMutability": "view",
      "type": "function"
    },
    {
      "inputs": [],
      "name": "symbol",
      "outputs": [
        {
          "internalType": "string",
          "name": "",
          "type": "string"
        }
      ],
      "stateMutability": "view",
      "type": "function"
    },
    {
      "inputs": [
        {
          "internalType": "uint256",
          "name": "tokenId",
          "type": "uint256"
        }
      ],
      "name": "tokenURI",
      "outputs": [
        {
          "internalType": "string",
          "name": "",
          "type": "string"
        }
      ],
      "stateMutability": "view",
      "type": "function"
    },
    {
      "inputs": [
        {
          "internalType": "address",
          "name": "from",
          "type": "address"
        },
        {
          "internalType": "address",
          "name": "to",
          "type": "address"
        },
        {
          "internalType": "uint256",
          "name": "tokenId",
          "type": "uint256"
        }
      ],
      "name": "transferFrom",
      "outputs": [],
      "stateMutability": "nonpayable",
      "type": "function"
    },
    {
      "inputs": [
        {
          "internalType": "address",
          "name": "newOwner",
          "type": "address"
        }
      ],
      "name": "transferOwnership",
      "outputs": [],
      "stateMutability": "nonpayable",
      "type": "function"
    },
    {
      "inputs": [],
      "name": "unpause",
      "outputs": [],
      "stateMutability": "nonpayable",
      "type": "function"
    },
    {
      "inputs": [
        {
          "internalType": "uint256",
          "name": "_fee",
          "type": "uint256"
        }
      ],
      "name": "updateFee",
      "outputs": [],
      "stateMutability": "nonpayable",
      "type": "function"
    },
    {
      "inputs": [],
      "name": "withdraw",
      "outputs": [],
      "stateMutability": "payable",
      "type": "function"
    }
  ],
  "bytecode": "0x608060405266044364c5bb00006009553480156200001c57600080fd5b5060405180604001604052806008815260200167496e7369676e696160c01b81525060405180604001604052806008815260200167494e5349474e494160c01b81525081600090805190602001906200007792919062000105565b5080516200008d90600190602084019062000105565b50506007805460ff1916905550620000a533620000ab565b620001e8565b600780546001600160a01b03838116610100818102610100600160a81b031985161790945560405193909204169182907f8be0079c531659141344cd1fd0a4f28419497f9722a3daafe3b4186f6b6457e090600090a35050565b8280546200011390620001ab565b90600052602060002090601f01602090048101928262000137576000855562000182565b82601f106200015257805160ff191683800117855562000182565b8280016001018555821562000182579182015b828111156200018257825182559160200191906001019062000165565b506200019092915062000194565b5090565b5b8082111562000190576000815560010162000195565b600181811c90821680620001c057607f821691505b60208210811415620001e257634e487b7160e01b600052602260045260246000fd5b50919050565b61252380620001f86000396000f3fe60806040526004361061019c5760003560e01c806370a08231116100ec578063a22cb4651161008a578063e4a83fb011610064578063e4a83fb01461046c578063e985e9c514610481578063edf764a3146104ca578063f2fde38b146104fb57600080fd5b8063a22cb4651461040c578063b88d4fde1461042c578063c87b56dd1461044c57600080fd5b80638456cb59116100c65780638456cb591461039f5780638da5cb5b146103b45780639012c4a8146103d757806395d89b41146103f757600080fd5b806370a0823114610347578063715018a61461037557806377d247621461038a57600080fd5b806323b872dd1161015957806342842e0e1161013357806342842e0e146102dc5780635c975abb146102fc5780636352211e146103145780636650fe2a1461033457600080fd5b806323b872dd1461029f5780633ccfd60b146102bf5780633f4ba83a146102c757600080fd5b806301ffc9a7146101a157806305f0bee6146101d657806306fdde0314610203578063081812fc14610225578063095ea7b31461025d5780630ce90ec21461027f575b600080fd5b3480156101ad57600080fd5b506101c16101bc366004612091565b61051b565b60405190151581526020015b60405180910390f35b3480156101e257600080fd5b506101f66101f1366004611f2e565b61056d565b6040516101cd91906121da565b34801561020f57600080fd5b5061021861078f565b6040516101cd9190612277565b34801561023157600080fd5b5061024561024036600461212a565b610821565b6040516001600160a01b0390911681526020016101cd565b34801561026957600080fd5b5061027d610278366004612068565b6108ae565b005b34801561028b57600080fd5b5061027d61029a36600461212a565b6109c4565b3480156102ab57600080fd5b5061027d6102ba366004611f7a565b610a49565b61027d610a7a565b3480156102d357600080fd5b5061027d610afa565b3480156102e857600080fd5b5061027d6102f7366004611f7a565b610b34565b34801561030857600080fd5b5060075460ff166101c1565b34801561032057600080fd5b5061024561032f36600461212a565b610b4f565b61027d6103423660046120c9565b610bc6565b34801561035357600080fd5b50610367610362366004611f2e565b610c25565b6040519081526020016101cd565b34801561038157600080fd5b5061027d610cac565b34801561039657600080fd5b50600954610367565b3480156103ab57600080fd5b5061027d610ce6565b3480156103c057600080fd5b5060075461010090046001600160a01b0316610245565b3480156103e357600080fd5b5061027d6103f236600461212a565b610d1e565b34801561040357600080fd5b50610218610d53565b34801561041857600080fd5b5061027d61042736600461202e565b610d62565b34801561043857600080fd5b5061027d610447366004611fb5565b610d6d565b34801561045857600080fd5b5061021861046736600461212a565b610da5565b34801561047857600080fd5b506101f6610f1c565b34801561048d57600080fd5b506101c161049c366004611f48565b6001600160a01b03918216600090815260056020908152604080832093909416825291909152205460ff1690565b3480156104d657600080fd5b506104ea6104e536600461212a565b611042565b6040516101cd95949392919061228a565b34801561050757600080fd5b5061027d610516366004611f2e565b611118565b60006001600160e01b031982166380ac58cd60e01b148061054c57506001600160e01b03198216635b5e139f60e01b145b8061056757506301ffc9a760e01b6001600160e01b03198316145b92915050565b6060600061057a83610c25565b67ffffffffffffffff8111156105a057634e487b7160e01b600052604160045260246000fd5b60405190808252806020026020018201604052801561060957816020015b6105f66040518060a00160405280606081526020016000815260200160008152602001600060ff168152602001600060ff1681525090565b8152602001906001900390816105be5790505b5090506000805b600a5481101561078657846001600160a01b031661062d82610b4f565b6001600160a01b0316141561077457600a818154811061065d57634e487b7160e01b600052603260045260246000fd5b90600052602060002090600402016040518060a00160405290816000820180546106869061240b565b80601f01602080910402602001604051908101604052809291908181526020018280546106b29061240b565b80156106ff5780601f106106d4576101008083540402835291602001916106ff565b820191906000526020600020905b8154815290600101906020018083116106e257829003601f168201915b5050509183525050600182015460208201526002820154604082015260039091015460ff808216606084015261010090910416608090910152835184908490811061075a57634e487b7160e01b600052603260045260246000fd5b6020026020010181905250818061077090612446565b9250505b8061077e81612446565b915050610610565b50909392505050565b60606000805461079e9061240b565b80601f01602080910402602001604051908101604052809291908181526020018280546107ca9061240b565b80156108175780601f106107ec57610100808354040283529160200191610817565b820191906000526020600020905b8154815290600101906020018083116107fa57829003601f168201915b5050505050905090565b600061082c826111b9565b6108925760405162461bcd60e51b815260206004820152602c60248201527f4552433732313a20617070726f76656420717565727920666f72206e6f6e657860448201526b34b9ba32b73a103a37b5b2b760a11b60648201526084015b60405180910390fd5b506000908152600460205260409020546001600160a01b031690565b60006108b982610b4f565b9050806001600160a01b0316836001600160a01b031614156109275760405162461bcd60e51b815260206004820152602160248201527f4552433732313a20617070726f76616c20746f2063757272656e74206f776e656044820152603960f91b6064820152608401610889565b336001600160a01b03821614806109435750610943813361049c565b6109b55760405162461bcd60e51b815260206004820152603860248201527f4552433732313a20617070726f76652063616c6c6572206973206e6f74206f7760448201527f6e6572206e6f7220617070726f76656420666f7220616c6c00000000000000006064820152608401610889565b6109bf83836111d6565b505050565b336109ce82610b4f565b6001600160a01b0316146109e157600080fd5b6000600a8281548110610a0457634e487b7160e01b600052603260045260246000fd5b6000918252602082206003600490920201908101805491935060ff90911691610a2c83612461565b91906101000a81548160ff021916908360ff160217905550505050565b610a533382611244565b610a6f5760405162461bcd60e51b81526004016108899061234b565b6109bf83838361132a565b6007546001600160a01b03610100909104163314610aaa5760405162461bcd60e51b815260040161088990612316565b60075460009061010090046001600160a01b03166040519091506001600160a01b038216904780156108fc02916000818181858888f19350505050158015610af6573d6000803e3d6000fd5b5050565b6007546001600160a01b03610100909104163314610b2a5760405162461bcd60e51b815260040161088990612316565b610b326114c6565b565b6109bf83838360405180602001604052806000815250610d6d565b6000818152600260205260408120546001600160a01b0316806105675760405162461bcd60e51b815260206004820152602960248201527f4552433732313a206f776e657220717565727920666f72206e6f6e657869737460448201526832b73a103a37b5b2b760b91b6064820152608401610889565b60075460ff1615610c0c5760405162461bcd60e51b815260206004820152601060248201526f14185d5cd8589b194e881c185d5cd95960821b6044820152606401610889565b600954341015610c1b57600080fd5b610af68282611559565b60006001600160a01b038216610c905760405162461bcd60e51b815260206004820152602a60248201527f4552433732313a2062616c616e636520717565727920666f7220746865207a65604482015269726f206164647265737360b01b6064820152608401610889565b506001600160a01b031660009081526003602052604090205490565b6007546001600160a01b03610100909104163314610cdc5760405162461bcd60e51b815260040161088990612316565b610b3260006116ae565b6007546001600160a01b03610100909104163314610d165760405162461bcd60e51b815260040161088990612316565b610b32611708565b6007546001600160a01b03610100909104163314610d4e5760405162461bcd60e51b815260040161088990612316565b600955565b60606001805461079e9061240b565b610af6338383611783565b610d773383611244565b610d935760405162461bcd60e51b81526004016108899061234b565b610d9f84848484611852565b50505050565b6060610db0826111b9565b610e165760405162461bcd60e51b815260206004820152603160248201527f45524337323155524953746f726167653a2055524920717565727920666f72206044820152703737b732bc34b9ba32b73a103a37b5b2b760791b6064820152608401610889565b60008281526006602052604081208054610e2f9061240b565b80601f0160208091040260200160405190810160405280929190818152602001828054610e5b9061240b565b8015610ea85780601f10610e7d57610100808354040283529160200191610ea8565b820191906000526020600020905b815481529060010190602001808311610e8b57829003601f168201915b505050505090506000610ec660408051602081019091526000815290565b9050805160001415610ed9575092915050565b815115610f0b578082604051602001610ef392919061216e565b60405160208183030381529060405292505050919050565b610f1484611885565b949350505050565b6060600a805480602002602001604051908101604052809291908181526020016000905b8282101561103957838290600052602060002090600402016040518060a0016040529081600082018054610f739061240b565b80601f0160208091040260200160405190810160405280929190818152602001828054610f9f9061240b565b8015610fec5780601f10610fc157610100808354040283529160200191610fec565b820191906000526020600020905b815481529060010190602001808311610fcf57829003601f168201915b50505091835250506001828101546020808401919091526002840154604084015260039093015460ff80821660608501526101009091041660809092019190915291835292019101610f40565b50505050905090565b600a818154811061105257600080fd5b90600052602060002090600402016000915090508060000180546110759061240b565b80601f01602080910402602001604051908101604052809291908181526020018280546110a19061240b565b80156110ee5780601f106110c3576101008083540402835291602001916110ee565b820191906000526020600020905b8154815290600101906020018083116110d157829003601f168201915b50505050600183015460028401546003909401549293909290915060ff8082169161010090041685565b6007546001600160a01b036101009091041633146111485760405162461bcd60e51b815260040161088990612316565b6001600160a01b0381166111ad5760405162461bcd60e51b815260206004820152602660248201527f4f776e61626c653a206e6577206f776e657220697320746865207a65726f206160448201526564647265737360d01b6064820152608401610889565b6111b6816116ae565b50565b6000908152600260205260409020546001600160a01b0316151590565b600081815260046020526040902080546001600160a01b0319166001600160a01b038416908117909155819061120b82610b4f565b6001600160a01b03167f8c5be1e5ebec7d5bd14f71427d1e84f3dd0314c0f7b2291e5b200ac8c7c3b92560405160405180910390a45050565b600061124f826111b9565b6112b05760405162461bcd60e51b815260206004820152602c60248201527f4552433732313a206f70657261746f7220717565727920666f72206e6f6e657860448201526b34b9ba32b73a103a37b5b2b760a11b6064820152608401610889565b60006112bb83610b4f565b9050806001600160a01b0316846001600160a01b031614806112f65750836001600160a01b03166112eb84610821565b6001600160a01b0316145b80610f1457506001600160a01b0380821660009081526005602090815260408083209388168352929052205460ff16610f14565b826001600160a01b031661133d82610b4f565b6001600160a01b0316146113a15760405162461bcd60e51b815260206004820152602560248201527f4552433732313a207472616e736665722066726f6d20696e636f72726563742060448201526437bbb732b960d91b6064820152608401610889565b6001600160a01b0382166114035760405162461bcd60e51b8152602060048201526024808201527f4552433732313a207472616e7366657220746f20746865207a65726f206164646044820152637265737360e01b6064820152608401610889565b61140e6000826111d6565b6001600160a01b03831660009081526003602052604081208054600192906114379084906123c8565b90915550506001600160a01b038216600090815260036020526040812080546001929061146590849061239c565b909155505060008181526002602052604080822080546001600160a01b0319166001600160a01b0386811691821790925591518493918716917fddf252ad1be2c89b69c2b068fc378daa952ba7f163c4a11628f55a4df523b3ef91a4505050565b60075460ff1661150f5760405162461bcd60e51b815260206004820152601460248201527314185d5cd8589b194e881b9bdd081c185d5cd95960621b6044820152606401610889565b6007805460ff191690557f5db9ee0a495bf2e6ff9c91a7834c1ba4fdd244a5e8aa4e537bd38aeae4b073aa335b6040516001600160a01b03909116815260200160405180910390a1565b6000611565606461195d565b90506000611579662386f26fc1000061195d565b6040805160a08101825286815260085460208083019190915291810183905260016060820181905260ff86166080830152600a80549182018155600052815180519495509193849360049092027fc65a7bb8d6351c1cf70c95a316cc6a92839c986682d98bc35f958f4883f9d2a801926115f7928492910190611de4565b50602082015160018201556040820151600282015560608201516003909101805460809093015160ff9081166101000261ffff199094169216919091179190911790556008546116489033906119b2565b611654600854856119cc565b600854604080519182526020820184905233917fafe9a4d0bee41081247d7c2ed78c299e0659e38f39503e1396e7e82f7bee258b910160405180910390a2600880549060006116a283612446565b91905055505050505050565b600780546001600160a01b03838116610100818102610100600160a81b031985161790945560405193909204169182907f8be0079c531659141344cd1fd0a4f28419497f9722a3daafe3b4186f6b6457e090600090a35050565b60075460ff161561174e5760405162461bcd60e51b815260206004820152601060248201526f14185d5cd8589b194e881c185d5cd95960821b6044820152606401610889565b6007805460ff191660011790557f62e78cea01bee320cd4e420270b5ea74000d11b0c9f74754ebdbfc544b05a25861153c3390565b816001600160a01b0316836001600160a01b031614156117e55760405162461bcd60e51b815260206004820152601960248201527f4552433732313a20617070726f766520746f2063616c6c6572000000000000006044820152606401610889565b6001600160a01b03838116600081815260056020908152604080832094871680845294825291829020805460ff191686151590811790915591519182527f17307eab39ab6107e8899845ad3d59bd9653f200f220920489ca2b5937696c31910160405180910390a3505050565b61185d84848461132a565b61186984848484611a57565b610d9f5760405162461bcd60e51b8152600401610889906122c4565b6060611890826111b9565b6118f45760405162461bcd60e51b815260206004820152602f60248201527f4552433732314d657461646174613a2055524920717565727920666f72206e6f60448201526e3732bc34b9ba32b73a103a37b5b2b760891b6064820152608401610889565b600061190b60408051602081019091526000815290565b9050600081511161192b5760405180602001604052806000815250611956565b8061193584611b64565b60405160200161194692919061216e565b6040516020818303038152906040525b9392505050565b600080423360405160200161198e92919091825260601b6bffffffffffffffffffffffff1916602082015260340190565b60408051601f19818403018152919052805160209091012090506119568382612481565b610af6828260405180602001604052806000815250611c7e565b6119d5826111b9565b611a385760405162461bcd60e51b815260206004820152602e60248201527f45524337323155524953746f726167653a2055524920736574206f66206e6f6e60448201526d32bc34b9ba32b73a103a37b5b2b760911b6064820152608401610889565b600082815260066020908152604090912082516109bf92840190611de4565b60006001600160a01b0384163b15611b5957604051630a85bd0160e11b81526001600160a01b0385169063150b7a0290611a9b90339089908890889060040161219d565b602060405180830381600087803b158015611ab557600080fd5b505af1925050508015611ae5575060408051601f3d908101601f19168201909252611ae2918101906120ad565b60015b611b3f573d808015611b13576040519150601f19603f3d011682016040523d82523d6000602084013e611b18565b606091505b508051611b375760405162461bcd60e51b8152600401610889906122c4565b805181602001fd5b6001600160e01b031916630a85bd0160e11b149050610f14565b506001949350505050565b606081611b885750506040805180820190915260018152600360fc1b602082015290565b8160005b8115611bb25780611b9c81612446565b9150611bab9050600a836123b4565b9150611b8c565b60008167ffffffffffffffff811115611bdb57634e487b7160e01b600052604160045260246000fd5b6040519080825280601f01601f191660200182016040528015611c05576020820181803683370190505b5090505b8415610f1457611c1a6001836123c8565b9150611c27600a86612481565b611c3290603061239c565b60f81b818381518110611c5557634e487b7160e01b600052603260045260246000fd5b60200101906001600160f81b031916908160001a905350611c77600a866123b4565b9450611c09565b611c888383611cb1565b611c956000848484611a57565b6109bf5760405162461bcd60e51b8152600401610889906122c4565b6001600160a01b038216611d075760405162461bcd60e51b815260206004820181905260248201527f4552433732313a206d696e7420746f20746865207a65726f20616464726573736044820152606401610889565b611d10816111b9565b15611d5d5760405162461bcd60e51b815260206004820152601c60248201527f4552433732313a20746f6b656e20616c7265616479206d696e746564000000006044820152606401610889565b6001600160a01b0382166000908152600360205260408120805460019290611d8690849061239c565b909155505060008181526002602052604080822080546001600160a01b0319166001600160a01b03861690811790915590518392907fddf252ad1be2c89b69c2b068fc378daa952ba7f163c4a11628f55a4df523b3ef908290a45050565b828054611df09061240b565b90600052602060002090601f016020900481019282611e125760008555611e58565b82601f10611e2b57805160ff1916838001178555611e58565b82800160010185558215611e58579182015b82811115611e58578251825591602001919060010190611e3d565b50611e64929150611e68565b5090565b5b80821115611e645760008155600101611e69565b600067ffffffffffffffff80841115611e9857611e986124c1565b604051601f8501601f19908116603f01168101908282118183101715611ec057611ec06124c1565b81604052809350858152868686011115611ed957600080fd5b858560208301376000602087830101525050509392505050565b80356001600160a01b0381168114611f0a57600080fd5b919050565b600082601f830112611f1f578081fd5b61195683833560208501611e7d565b600060208284031215611f3f578081fd5b61195682611ef3565b60008060408385031215611f5a578081fd5b611f6383611ef3565b9150611f7160208401611ef3565b90509250929050565b600080600060608486031215611f8e578081fd5b611f9784611ef3565b9250611fa560208501611ef3565b9150604084013590509250925092565b60008060008060808587031215611fca578081fd5b611fd385611ef3565b9350611fe160208601611ef3565b925060408501359150606085013567ffffffffffffffff811115612003578182fd5b8501601f81018713612013578182fd5b61202287823560208401611e7d565b91505092959194509250565b60008060408385031215612040578182fd5b61204983611ef3565b91506020830135801515811461205d578182fd5b809150509250929050565b6000806040838503121561207a578182fd5b61208383611ef3565b946020939093013593505050565b6000602082840312156120a2578081fd5b8135611956816124d7565b6000602082840312156120be578081fd5b8151611956816124d7565b600080604083850312156120db578182fd5b823567ffffffffffffffff808211156120f2578384fd5b6120fe86838701611f0f565b93506020850135915080821115612113578283fd5b5061212085828601611f0f565b9150509250929050565b60006020828403121561213b578081fd5b5035919050565b6000815180845261215a8160208601602086016123df565b601f01601f19169290920160200192915050565b600083516121808184602088016123df565b8351908301906121948183602088016123df565b01949350505050565b6001600160a01b03858116825284166020820152604081018390526080606082018190526000906121d090830184612142565b9695505050505050565b60006020808301818452808551808352604092508286019150828160051b870101848801865b8381101561226957603f19898403018552815160a0815181865261222682870182612142565b838b0151878c0152898401518a88015260608085015160ff9081169189019190915260809485015116939096019290925250509386019390860190600101612200565b509098975050505050505050565b6020815260006119566020830184612142565b60a08152600061229d60a0830188612142565b602083019690965250604081019390935260ff918216606084015216608090910152919050565b60208082526032908201527f4552433732313a207472616e7366657220746f206e6f6e20455243373231526560408201527131b2b4bb32b91034b6b83632b6b2b73a32b960711b606082015260800190565b6020808252818101527f4f776e61626c653a2063616c6c6572206973206e6f7420746865206f776e6572604082015260600190565b60208082526031908201527f4552433732313a207472616e736665722063616c6c6572206973206e6f74206f6040820152701ddb995c881b9bdc88185c1c1c9bdd9959607a1b606082015260800190565b600082198211156123af576123af612495565b500190565b6000826123c3576123c36124ab565b500490565b6000828210156123da576123da612495565b500390565b60005b838110156123fa5781810151838201526020016123e2565b83811115610d9f5750506000910152565b600181811c9082168061241f57607f821691505b6020821081141561244057634e487b7160e01b600052602260045260246000fd5b50919050565b600060001982141561245a5761245a612495565b5060010190565b600060ff821660ff81141561247857612478612495565b60010192915050565b600082612490576124906124ab565b500690565b634e487b7160e01b600052601160045260246000fd5b634e487b7160e01b600052601260045260246000fd5b634e487b7160e01b600052604160045260246000fd5b6001600160e01b0319811681146111b657600080fdfea2646970667358221220dcf244a636141fba7714f326ce49b21096df92c6878a9a6db1752f892c3f55ee64736f6c63430008040033",
  "linkReferences": {},
  "deployedLinkReferences": {}
}